:040000006F109024C9
:10000400000000000000000090000020A204002076
:10001400A9BDF9F3900000200000000000000000DA
:10002400900000209000002000000000000000006C
:10003400900000200000000090000020000000005C
:1000440090000020900000209000002090000020EC
:1000540090000020900000209000002090000020DC
:1000640090000020900000209000002090000020CC
:1000740096050020900000209000002090000020B1
:1000840090000020900000209000002090000020AC
:1000940001A04111B7170040985F3AC6945F3247F8
:1000A400E39CE6FE32454101828073270080218B68
:1000B4009387018409CB7327008023A0E1849843AC
:1000C4005D9B731007800F100000371700409306E4
:1000D40070052300D704930680FA2300D7040F1079
:1000E40000008346B70493F6F60DA305D704230056
:1000F4000704732600809443A18AD18E73900680EE
:1001040023A001840F10000093760502638406186F
:100114000347A700118B25E773270080218B09CBA8
:100124007327008023A0E18498435D9B73100780AC
:100134000F10000037170040930670052300D70402
:10014400930680FA2300D7040F1000008346A7000B
:1001540093E646002305D70023000704F326008016
:100164009843218B558F7310078023A001840F10AF
:1001740000001307004B010001007D176DFF73277A
:100184000080218B09CB7327008023A0E18498434E
:100194005D9B731007800F10000037170040930613
:1001A40070052300D704930680FA2300D7040F10A8
:1001B40000007D892314A700010001000100010053
:1001C40023000704F32600809843218B558F731076
:1001D400078023A001840F10000073270080218B67
:1001E40009CB7327008023A0E18498435D9B73109F
:1001F40007800F1000003717004093067005230096
:10020400D704930680FA2300D7040F1000000F10C0
:100214000000B726004013061005A383C680230000
:100224000704F32600809843218B558F73100780B1
:1002340023A001840F10000073270080218B09CBB9
:100244007327008023A0E18498435D9B731007808B
:100254000F10000037170040930670052300D704E1
:10026400930680FA2300D7040F1000008346B704D6
:1002740093E60608A305D704230007047327008028
:100284009C43A18BD98F7390078023A001840F1006
:100294000000828093760504638B06140347A7004D
:1002A400418B25E773270080218B09CB73270080BE
:1002B40023A0E18498435D9B731007800F10000016
:1002C40037170040930670052300D704930680FA7D
:1002D4002300D7040F1000008346A70093E606010D
:1002E4002305D70023000704F32600809843218BBD
:1002F400558F7310078023A001840F10000013078B
:10030400007D010001007D176DFF73270080218BA4
:1003140009CB7327008023A0E18498435D9B73106D
:1003240007800F1000003717004093067005230064
:10033400D704930680FA2300D7040F1000009376A5
:10034400F50193E606042314D7000100010001001F
:10035400010023000704F32600809843218B558F66
:100364007310078023A001840F100000130760049A
:100374006310E50473270080218B09CB7327008069
:1003840023A0E18498435D9B731007800F10000045
:1003940037170040930670052300D704930680FAAC
:1003A4002300D7040F100000B72600400946B5B556
:1003B40073270080218B09CB7327008023A0E1845D
:1003C40098435D9B731007800F100000371700409F
:1003D400930670052300D704930680FA2300D704FC
:1003E4000F100000B7260040130620053DB5732703
:1003F4000080218B09CB7327008023A0E1849843DC
:100404005D9B731007800F100000371700409306A0
:1004140070052300D704930680FA2300D7040F1035
:1004240000008356870093E6060C2314D700C5BB4F
:100434004111814601468145114506C6152CF32715
:100444000080A18B9386018489CBF327008023A0AD
:10045400F1849C42DD9B739007800F100000B71756
:100464000040130770052380E704130780FA2380F4
:10047400E7040F10000003C7670413671700238302
:10048400E70423800704732700809C42A18BD98F43
:100494007390078023A001840F100000B240410133
:1004A40082808146014681451145D922F327008087
:1004B400A18B1387018489CBF327008023A0F184C7
:1004C4001C43DD9B739007800F100000B71700409A
:1004D400930670052380D704930680FA2380D704FB
:1004E4000F100000FD562396D70223800704F3263D
:1004F40000801C43A18BD58F7390078023A00184B7
:100504000F100000F3270080A18B89CBF327008014
:1005140023A0F1841C43DD9B739007800F1000001F
:10052400B7170040930670052380D704930680FA1A
:100534002380D7040F10000083C6670493E61600D7
:100544002383D70423800704F32600801C43A18B54
:10055400D58F7390078023A001840F10000001A0A1
:10056400BD473305F50201007D1575FD82804111FB
:1005740022C426C206C6AA84014463179400B2406A
:10058400224492444101828005041305803E4204C2
:10059400C13F4180DDB7B71700401307000323882C
:1005A400E702854723A4F18473002030411106C675
:1005B400A92DFDBF2303048015472303E480010014
:1005C4002302A480828083076480E3CE07FE230392
:1005D4000480828083076480E3CE07FE0345448061
:1005E400828083076480E3CE07FE2302A480828096
:1005F400411126C44AC24EC006C61377F50BAD4757
:10060400AA892E8995446306F70019456537653F25
:100614008D444E854537FD59FD1463983401B2402D
:10062400A24412498249410182801355090113757C
:10063400F50F453F2209CDB7011126CC06CEB704EC
:10064400080051371545BD37713769372AC6A53FAC
:1006540032459377150089EB136515001375F50F73
:10066400F240E24405618280FD14E9FC0145CDBFFE
:10067400397126DC4ADA4ED852D656D45AD25ED0D4
:1006840006DE62CE66CCB7E700E07D5783AA07009A
:1006940022C603AA470023A0E71823A2E718B71726
:1006A4000040130770052380E704130780FA2380B2
:1006B400E70483C74704930B75FFB684E20793FBF3
:1006C400FB0F8546AA892E8B328937240040E187A7
:1006D400015763FA76016308D500894613070002BF
:1006E4006313D5000157D98F93F7F70FB71C004058
:1006F4002382FC0411472303E4801305F00F5D3DBE
:10070400094CD135636D7C11B7050700DA9537873D
:100714000700795563F2E504B3879500636EF70229
:10072400370B0800A94733EB65016399F90689E49F
:100734008144513D26850DA0DA850945553D0509BD
:100744000345F9FFFD14050B693D81C49377FB0F45
:10075400FDF7DD3569FD7D55B717004013077005BA
:100764002380E704130780FA2380E70403C74704C0
:10077400418B2382E704F250B7E700E023A057112E
:1007840023A24711E25432445259C259325AA25A4E
:10079400125B825B724CE24C21618280A5476395B7
:1007A400F90685691309F00FB3069900B3742B0198
:1007B400B6941349F9FFB3749900856B33796901D1
:1007C400416B9387F9FFB3F7270199E363FC340185
:1007D40093D94900C147E3E637FF99BF0569C16969
:1007E4007D19D9B71305800D6388690113050002CB
:1007F4006384790113051008CA85DD3B353D21DD8D
:100804004E99B3843441D9B7DA852D45D533CA948A
:10081400E30099F205097D3BA30FA9FED5BF938799
:10082400F9FF93F7F70F6361FC0C83C71C041307EC
:100834003008631FF70437070800636BEB04B30742
:100844009B00B706100063F5D704334BEB008947D0
:100854006393F9068980D549E38C04ECDA8509456C
:10086400413B11090327C9FF91472320E480030773
:100874006480E34E07FE23033481FD17EDFBFD1472
:10088400110B81C49377FB0FE9FF7D3371F5E1B55B
:10089400B717004003C75704B707080013770702C8
:1008A40019E3B78707007955E378FBEA33079B0020
:1008B400E3FFE7F855B58547E382F9F2DA852D457C
:1008C400053B9389F4FFE38504E6293393F7390064
:1008D40091EB832604800327090093074900E39AD8
:1008E400E6E43E89CE84F1BFB5476396F90013056B
:1008F400900BC93135BDB1471305B00AE38BF9FE3E
:1009040099476391F904B7050800B365BB002D4509
:10091400C53181448D4BA149753963967401832790
:1009240004802320F9008504E39834FF832704809E
:1009340013172B01635507002312F900D5BB23229B
:10094400F900FDB39D476399F90281451305B0048D
:100954004531BD442320090023220900FD599D3956
:1009640093F77400CA9703C70700FD14398D2380D9
:10097400A700E39634FF6DBBA1476392F9046D3978
:100984008144630D0B008D479304C0036308FB008F
:100994009304000563048B01930440041375C50795
:1009A400E30895D81945393139390545213126856A
:1009B4000D3909453D314931E31C05D669BB9147E1
:1009C4006399F90013056006F536F53E13059009A1
:1009D4000DB7E38F09D4F154A9BB19CD91CD09CE3C
:1009E40081473387F500834607003307F500850701
:1009F4002300D700E317F6FE828019C991C909CAFA
:100A0400910583A7C5FF11057D16232EF5FEC5BFED
:100A1400828001C919C62A960505A30FB5FEE31DF8
:100A2400A6FE828081473307F5000307070019E318
:100A34003E8582808507C5BF01112E8626CAAA84F9
:100A4400131506019305F004418122CC06CE32C66B
:100A5400EF00F0512A8401C53246A685BD3F2285A8
:100A6400F2406244D24405618280854715C18DC13C
:100A740005C28147B306F5003387F50083C6060037
:100A8400034707006398E6008507E315F6FE8547EC
:100A94003E8582808147EDBF9307F6FFBE952A9677
:100AA4006313C5008280FD1583C715000505A30FD8
:100AB400F5FEFDB7AA87014581CF09CE3E9685078D
:100AC40003C7F7FF6317B700E39BC7FE05458280A2
:100AD40082800145828079719387818622D4804304
:100AE40006D626D24AD04ECE52CC56CA5AC85EC674
:100AF4005DCCB7C4C901014B938901869384F43753
:100B0400173A0000130ACAA9973A0000938A0AAD5B
:100B1400173900001309C9B08357240085E35C44E6
:100B2400631B0B0023A4F186832BC4002285EF00F2
:100B340070505E84B9A82326FB00FDB783A7090083
:100B440082971C443307F5406376F5000327490078
:100B54001D8F2A9763E0E4089737000023A807A8AD
:100B64008355240003450400972000E0E7802065B6
:100B74005C405844A1CB0C4403264900AE97BE8682
:100B840063E4B70063E4C700B386C74014C4228B90
:100B94003A8459F097370000938747A49C4B094740
:100BA4006370F706F917173700002321F7A4B25032
:100BB400225492540259F249624AD24A424BB24BED
:100BC4004561828063150B0023A4E186B1BF23260F
:100BD400EB0099BF03274A0209CF63EFA7003385CF
:100BE400A74083A70A016376F5009737000023AF77
:100BF400A79E228B404471BF03274900BA97C5B70B
:100C04009737000023A4079E5DB7411122C417340F
:100C140000001304249F1C4006C626C24AC091C784
:100C240082979737000023AF079C9737000083C74C
:100C340037B7858B97340000938444B695C39737B0
:100C44000000A38F07B483C774001547637AF700C5
:100C5400052B83C77400F5178A07A2979C438297D4
:100C64001C4491C3829713894185032709001736D1
:100C740000000346B6969737000083C727969396DD
:100C84001700BA9683D60600C5CE9737000083C7EF
:100C9400E79463E1C70C97370000238107941C4055
:100CA400639507129737000083C7D7AF91CF83C7E7
:100CB400740093F7F70F89EB97370000A38407AE0E
:100CC40097F000E0E780804E938701869C43638E13
:100CD400070E973700009387A794DC43173700006B
:100CE4002326F790CD3B973700009387678BDC531F
:100CF400E9CF173700001307678E184B97370000AA
:100D040083C7578B6363F70C83C774001547636EFF
:100D1400F70A9737000083C7E7AC918BDDE703261A
:100D240009009736000083C6768B63C6D70A22442F
:100D3400B24092440249410117D301E0670083B1F4
:100D4400850793F7F70F973600002389F688E3E4C5
:100D5400C7F225BF86073E97835507002310070077
:100D6400239E01849387C1869C4317350000034565
:100D7400E58613172500BA979C43829783D7C185CC
:100D8400173700000347878593C7F7FF7D8D9317B7
:100D94001700032709003E97835707005D8D231032
:100DA400A7009737000083C7678391C78507173764
:100DB40000002305F782173700000347278297377F
:100DC400000083C7B781E378F7ECB2402244924431
:100DD4000249410182801397170032970357070095
:100DE4006DF7850799B7AD6737C70040BD07232660
:100DF400F7200F100000972700009387277EC84F25
:100E040083278726BD66BD0693C7F7FF99836A05C6
:100E14002326D7205D8D82804111B7170040985F4B
:100E24003AC6945F3247E39CE6FE32454101828034
:100E34001305F00F8280011197370000938707A0F4
:100E440022CC03A4070C26CA06CE2AC42EC6854487
:100E540019E40145F2406244D2440561828083472B
:100E6400910003471400858B6304F7000044CDB759
:100E740019469305A10013052400C53EE31895FE09
:100E84000545C9BF138741911C439306001094C3C1
:100E940001000100010001001C4323A00700834658
:100EA400150003482500A2064208C296034805001F
:100EB400C296034835006208C29694D7834655000B
:100EC40003486500A2064208C29603484500C2963C
:100ED400034875006208C296D4D783469500034838
:100EE400A500A2064208C29603488500C29603489C
:100EF400B5006208C29694DB8346D5000348E5003A
:100F0400A2064208C2960348C5000345F500C296EE
:100F14006205AA96D4DB83C6150003C52500A20684
:100F24004205AA9603C50500AA9603C535006205C5
:100F3400AA9694CF83C6550003C56500A206420550
:100F4400AA9603C54500AA9603C575006205AA962C
:100F5400D4CF83C6950003C5A500A2064205AA9670
:100F640003C58500AA9603C5B5006205AA9694D365
:100F740083C6D50003C5E500A2064205AA9603C5AB
:100F8400C50083C5F500AA96E205AE96D4D3D44332
:100F9400F59AD4C3D44393E61600D4C3944393E69A
:100FA400160094C3BA879443D842058B59E3984EEC
:100FB40001452300E6009843184F2183A300E6006F
:100FC4009843184F41832301E6009843184F6183E7
:100FD400A301E6009C43D84F2302E600D84F2183A7
:100FE400A302E600D84F41832303E600D84F618370
:100FF400A303E60098532304E60098532183A30433
:10100400E600985341832305E60098536183A305C2
:10101400E600D8532306E600D8532183A306E6004E
:10102400D85341832307E600DC53E183A307F6008A
:10103400828001008DBF138781911443411122C422
:101044009C5E4AC006C6998326C2858B3A8413895E
:101054004191D1C79C5E972400009384247493F734
:10106400F7F99CDE172700000347A77393070008CE
:10107400631BF700832709009C4393F70704172792
:1010840000002300F77283C7040093F707048DC39D
:10109400938701869C4382979727000023A8A77013
:1010A40083C7040093F7F70B172700002308F76E94
:1010B40083C7440093F707049DE38547172700007F
:1010C400A300F76E938741929C43096798C713075F
:1010D40000FC972600002385E66CD844F8D31C4016
:1010E400985F1183058B09CB985F3D9B98DF05477B
:1010F400972600002386E66A985F1D83058B11CB33
:10110400985F1377F7F798DF8547172700002309BF
:10111400F76883270900D8430583058B19C7D8438B
:10112400759BD8C3D843799BD8C3B2402244924418
:10113400024941018280397106DE16DC1ADA1ED8B2
:101144002AD62ED432D236D03ACE3ECC42CA46C863
:1011540072C676C47AC27EC0F93DF250E25252534E
:10116400C2533255A255125682567247E24752482C
:10117400C248324EA24E124F824F2161730020307A
:10118400938741929443972700009387276103C76D
:101194000700058B11CB972700002383076097274F
:1011A4000000A38F075E828003C71700058B65F7D5
:1011B400F85271FF83C75700DDB713888191032765
:1011C40008001C5F9583858BD1E709C61C5BBD8332
:1011D4002300F60085CA83270800985B46079357C7
:1011E40067016356070093E707C0C207C1830397EB
:1011F4000600C207C18709C7BA970947B3C7E70200
:101204002390F60085CD834715008DCB97260000EB
:1012140083C6265993F606041387970089478DCA17
:101224003A9503470500854699471376F7066311F7
:10123400D60262076187B947634C07008327080019
:101244009C5FED838D8B17270000A30EF754814715
:101254003E8582808547EDBF411122C406C61384B2
:10126400419218402DE9AE877453FDFE3E85B28548
:10127400972700002385075297F000E0E78040C8D5
:10128400938781919C43B70680009843558F98C3F8
:10129400D857719BD8D797270000A3830750972767
:1012A4000000A38D074E1C40094798C3144017271C
:1012B40000001307A74E83472700858B89EB8347DC
:1012C4003700858BD9C397270000238B074CB24086
:1012D4002244410182808D47631EF50093878191EA
:1012E4009C43B70680009843558F98C3D857719B89
:1012F400D8D76DBF8547E31BF5FA5447F977FD1737
:10130400F58F5CC70F1000001C40096798C71307CE
:1013140000F8172600002305E6481387819110433F
:10132400184231830D8B11E713076019F8D3D4C722
:10133400B5BF1842094631830D8B6315C7001307E7
:10134400E043EDB71307E01BD5B7FC52ADF741B747
:101354005D71A2C4A6C22A84130680022800AE844A
:101364009305100886C6CAC04EDE52DCEFF06FEA61
:10137400354597F000E0E78000F5138381918327DA
:1013840003009376F41F138EC19223A40700984B95
:10139400938E4192370FFCFF1367F70398CBF84FF6
:1013A400130510F8B7020400137707E0558FF8CF40
:1013B4009843F576FD16758F98C39843B7063300A6
:1013C400930380251377F7E798C3984311497D1F4A
:1013D4001377F7E71367071098C303270E008549AF
:1013E400930F80021C47D58F1CC783A70E001307D9
:1013F400900D3400B8CB014793553700A69583C7A9
:10140400050013767700B3D7C740858BE1C38327E4
:10141400030083280E00239C07042390070603A8D7
:10142400C8021378D8FF23A6080383A807001378FB
:10143400F70793F808F833E8080123A0070103A885
:1014440047023368580023A2070383A80E0001480B
:1014540023A2780603DA07066307480303A80703F1
:10146400038A06001358F800620813588841635829
:101474000A0103A807031358F8002380060103D8C0
:1014840007061378F80F03AA480663060A0003DA6E
:101494008705E37F49FB03A847023378E80123A2C9
:1014A400070383870600635CF40003C805003396D2
:1014B400C9001346F6FF337606012380C5003E8635
:1014C40063D3A7002A861315860161850507137760
:1014D400F70F8506E312F7F3B6402644964406490F
:1014E400F259625A61618280938641929C42D84744
:1014F4001316170163550602984713161701635014
:1015040006027D57B8D7172700001307270D584F39
:101514000507172600002321E60E116798C7984790
:101524000D83058B1DCB172700000347472713673F
:101534001700172600002304E626130700F81726D1
:101544000000230FE624214798C713878191104395
:101554005856719B1367170058D69847058B0DC7CB
:101564001727000003479723136717001726000067
:10157400A306E622054798C713878191104358565E
:10158400719B1367170058D698470983058B09E7A1
:1015940098470583058B21CF98471726000013062B
:1015A400E61F138581910983058B63030710184196
:1015B400184331830D8B75EBAC4B184E93F5050234
:1015C40003471700CDCD79EF13077006D8CF034733
:1015D400060013671700172600002301E61C1147B5
:1015E40098C718415C57F19B93E717005CD79C425E
:1015F40098479316370163D606029726000083C6E0
:10160400662BC18A1727000013074723C5CE03475B
:1016140087071367070297260000238DE6280567CE
:1016240098C798479316270163D10602172700002D
:101634000347071762076187635707000547972623
:101644000000238FE614096798C79847931607018B
:1016540063D606029726000083C6D625858A1727F7
:1016640000001307A71DADCE034797071367270094
:1016740097260000A380E624216798C7828029D793
:1016840085456315B7001307B00689B78945631507
:10169400B7001307F0061DBF8D456315B700130788
:1016A40030072DB71307500715B71307600739BF65
:1016B400034736001367170017260000A301E60E40
:1016C400094739BF834687070946BD8A6388C60030
:1016D400034787078D463D8BE313D7F4114725BF96
:1016E40083469707918AC9DA0347970713678700E8
:1016F40041B7397106DE16DC1ADA1ED82AD62ED482
:1017040032D236D03ACE3ECC42CA46C872C676C42D
:101714007AC27EC0D13BF250E2525253C253325588
:10172400A255125682567247E2475248C248324E78
:10173400A24E124F824F2161730020309387419251
:1017440098438567938707777CD39387C1929C439B
:1017540083A60709139656006358060083A6070953
:1017640013966600634406007453FDF2828061C1DF
:10177400AA870145DDCD8D07C207C183F19BC2074E
:10178400C18313074003636BF7021387819B0843EC
:101794001387019B14436396A602172700001307BF
:1017A40027E0185B014551C74111C20706C605452C
:1017B400DD8D0297B2400145410182801387419B30
:1017C400F9B70357650035E303574500636FF70422
:1017D400B306F7402146637CD602032805009386AE
:1017E40087001D8FAA96611717260000035666DF2F
:1017F4002392E60023A006012393060014C12312BA
:10180400F500130786FF97260000239CE6DC2313CC
:10181400B5009725000083D5C5DCB387F5401727AD
:1018240000002310F7DC210582800841ADB7014593
:101834008280828009CD9387819B03A307009387CD
:10184400019B83A8070081469A8763E3170182807E
:1018540003A807006369F50A6367A80A138787006A
:10186400E367E5FE03D66700216705076317E60013
:1018740003C7018F05072388E18E97250000938510
:10188400E5D503D6470003D76500239307003297B5
:1018940042074183172500002315E5D463886702B6
:1018A4001385419B08416303F50203D5660019EDD6
:1018B40083D7460023A0060121073E9621062392E2
:1018C400C60097270000239EE7D0B6879843E3001D
:1018D40017F99386419B9442E30BD7F6835667002E
:1018E400BDF683D64700035647001843A106B296B7
:1018F4002392D70098C383D76500A1071727000058
:101904002311F7CE8280BE86C28781B7797122D433
:1019140006D683C735002E8423160100A307F100E1
:1019240083C74500100802C02307F10083C7550090
:101934008A8502C2A306F10002C402C802CA02CC0C
:1019440002CEEFF02FD40347F10183470400014591
:101954006310F7020347E10183471400014563194B
:10196400F7000345D101834724001D8D133515006D
:10197400B250225445618280011197270000938759
:10198400E7EB22CC03A4870C26CA4AC84EC606CE6F
:10199400AA8413092500854915C083C71400034789
:1019A4003400858B6304F700405CFDB7194693054A
:1019B40044004A85EFF06F8BE31835FF2285F2402F
:1019C4006244D2444249B249056182804111972759
:1019D40000009387A7E622C403A4870C26C24AC04A
:1019E40006C693042500054901E82285B240224435
:1019F4009244024941018280A6851305A402393725
:101A0400E30525FF405CCDB741119727000093877C
:101A1400E7E222C403A4870C26C24AC006C6930484
:101A24002500054901E82285B24022449244024936
:101A340041018280A6851305A401C93DE30525FF64
:041A4400405CCDB77E
:101A48009711002093818196176100201301015B93
:101A58001305400097E5FF1F9385455A1706002098
:101A6800130606FE63FAC5008322050023A055006D
:101A780011059105E3EAC5FE17C50100130545E9FF
:101A8800970500209385C5FB1386018463FAC5007A
:101A98008322050023A0550011059105E3EAC5FE40
:101AA8001385018497250020938585EB6377B5001E
:101AB800232005001105E36DB5FEFD42739002BCBD
:101AC8008D4273904280930280087390023097E2AF
:101AD800FF1F9382A25293E232007390523037175D
:101AE8000040930770052300F704930780FA23004A
:101AF800F7040F1000003C47B70600FAE116F58F0F
:101B0800B70600069506D58F3CC79712000093824A
:101B1800022C73901234730020303D432A8763737C
:101B2800C3029377F700BDEFADE5937606FF3D8AD4
:101B3800BA960CC34CC30CC74CC74107E36BD7FE1E
:101B480011E28280B306C3408A0697020000969687
:101B58006780A6002307B700A306B7002306B700CF
:101B6800A305B7002305B700A304B7002304B700F3
:101B7800A303B7002303B700A302B7002302B700EB
:101B8800A301B7002301B700A300B7002300B700E3
:101B9800828093F5F50F93968500D58D9396050170
:101BA800D58D61B793962700970200009696868296
:101BB800E78086FA9680C1171D8F3E96E374C3F8B6
:101BC800A5B7B717004003C777051377E70FA38BAF
:101BD800E704130700F8A38DE7043D47238CE704C7
:101BE80013075003A38CE7048280B717004083C70C
:101BF800E7020D8993F7C70FC98F73270080218BE0
:101C08009386018409CB7327008023A0E18498423E
:101C18005D9B731007800F100000371700401306F4
:101C280070052300C704130680FA2300C7040F10A9
:101C380000002307F70223000704732700809C4253
:101C4800A18BD98F7390078023A001840F10000007
:101C5800828041112A83014E930E407E130F001992
:101C6800930F400663E66E149308001913034006A9
:101C7800B3781503854E0D4FA14F337365020D8957
:101C88001335150063E0BE161308F6FF79467298FF
:101C98004208135808013307C70213D61700BE07B6
:101CA80032976146B3F6C60213068070B386C60241
:101CB8003697A166F58F42075D8FB716004083C738
:101CC800F60293F70708A307F1000346F10083C75C
:101CD800F60293F70708E394C7FE8347F100B716A7
:101CE800004093F7F70F63890714F3270080A18B4F
:101CF80093860184639807140F100000B7170040FB
:101D0800130670052380C704130680FA2380C704CE
:101D18000F10000023AA070303C61703136606085B
:101D2800A388C70223800704732600809C42A18BE6
:101D3800D18F7390078023A001840F1000001166D3
:101D4800B71500407D16DC59C85DA98FF18FE5FFF6
:101D5800F3270080A18B89CBF327008023A0F1848F
:101D68009C42DD9B739007800F100000B71700405E
:101D7800130670052380C704130680FA2380C7045E
:101D88000F100000D8DB03C7170313670704A388E5
:101D9800E70223800704732700809C42A18BD98F18
:101DA8007390078023A001840F10000041018280F6
:101DB8007D133368E3039308E016630E0800336865
:101DC800F3039308D016630808009378330093B898
:101DD80018009388D81633081E01131E0801135ED5
:101DE8000E0149B56393E503054863860800014879
:101DF800630303002A8871087298FD15131E0801F1
:101E0800C205135E0E01C181B5BD13F8150063F458
:101E1800BF007908D5B713381800E5BF83C7F602A5
:101E280093F70708A307F1000346F10083C7F602FA
:101E380093F70708E394C7FE8347F10093F7F70F7A
:101E4800F1DF65B5F327008023A0F1849C42DD9B78
:101E58007390078055B55971E2C486D6A2D4A6D22C
:101E6800CAD0CECED2CCD6CADAC8DEC6E6C2EAC05E
:101E78006EDE2A8C02D6EF001016F3270080A18BA5
:101E8800138D018491CBF327008023A0F18483274D
:101E98000D00DD9B739007800F100000B7170040FE
:101EA800130770052380E704130780FA2380E704EB
:101EB8000F10000003C7F7021377770FA387E70215
:101EC80003C7F70213678700A387E7022380070485
:101ED8007327008083270D00A18BD98F739007800B
:101EE80023A001840F100000F3270080A18B91CB61
:101EF800F327008023A0F18483270D00DD9B7390D6
:101F080007800F100000B7170040130770052380E3
:101F1800E704130780FA2380E7040F10000003C7C3
:101F2800E7021377C70F2387E70203C7E7021367A0
:101F380017002387E702238007047327008083277D
:101F48000D00A18BD98F7390078023A001840F10F7
:101F58000000130780C13347E5029169938709E8B8
:101F6800130650023D69B7440F0093840424856B1F
:101F7800130BA004014A814A13047005FD19B347E5
:101F8800F5023307C7023EC2930709A61309803E2C
:101F98003347F7023AC43347250305493319890102
:101FA800135939403345950293840BFAB39484014D
:101FB800811B3306C702B346F6023309E90236C667
:101FC800330B670313076055B3049502130500101C
:101FD8003309E902B346FB02130B80FAB3C4A40227
:101FE80036C8B347F902939634003719004036CC07
:101FF800930409043ECA73260080218A11CA7326F5
:10200800008023A0C18403260D005D9A731006800A
:102018000F100000930770052380F40023806401EB
:102028000F100000034639051376860FA309C9046B
:102038000346390513661600A309C9042380040062
:102048007325008003260D00218A498E73100680AF
:1020580023A001840F100000916CE17D732600809D
:10206800218A11CA7326008023A0C18403260D008B
:102078005D9A731006800F10000093077005238087
:10208800F400238064010F1000000346390513662D
:102098000602A309C90403560905336696012318E5
:1020A800C904035609053366B6014206418223185E
:1020B800C904238004007325008003260D00218AAB
:1020C800498E7310068023A001840F100000034678
:1020D8003905137606026305061603463905218A73
:1020E8006DDE6810152F73260080218A11CA7326A9
:1020F800008023A0C18403260D005D9A731006801A
:102108000F10000023808400238064010F1000005A
:10211800034639051376F60DA309C90403463905A4
:1021280013660602A309C904035609053366960116
:102138002318C904035609053366B60142064182CD
:102148002318C904238004007325008003260D008A
:10215800218A498E7310068023A001840F10000085
:102168000346390513760602630806100346390547
:10217800218A6DFE97E0FF1FE78060F12A8632CE44
:1021880097E0FF1FE780A0F07246E30AC5FE0356FA
:1021980009053255336696012318C904712D034683
:1021A8003905218A6DDE035509050346290592473D
:1021B80033F5A9003386C90232951D8DA24763D530
:1021C800A700B2476346F50E09466365560FC24736
:1021D800850A1316150093FAFA0F3346F60263546C
:1021E800A03A050609453346A602732500802189D1
:1021F80011C97325008023A0A18403250D005D99D2
:10220800731005800F100000238084002380640170
:102218000F1000000355C9022A9642064182231670
:10222800C902238004007325008003260D00218A3B
:10223800498E7310068023A001840F10000039BD59
:1022480073260080218A11CA7326008023A0C184C6
:1022580003260D005D9A731006800F10000023807E
:102268008400238064010F100000034639051366BB
:102278000602A309C90435BD73260080218A11CA44
:102288007326008023A0C18403260D005D9A731075
:1022980006800F10000023808400238064010F1043
:1022A80000000346390513660602A309C90459BD8F
:1022B800E38F0AF073260080218A11CA73260080F2
:1022C80023A0C18403260D005D9A731006800F10A9
:1022D800000023808400238064010F10000003465F
:1022E80039051375FC0F1376860FA309C904034635
:1022F8003905498EA309C904238004007328008086
:1023080003260D00218A336606017310068023A078
:1023180001840F100000034639051D8A63178627BC
:1023280073260080218A11CA7326008023A0C184E5
:1023380003260D005D9A731006800F10000023809D
:102348008400238064010F100000034639051165DD
:102358001376F60DA309C904034639051366060268
:10236800A309C90403560905498E2318C90403564D
:1023780009052165498E2318C904238004007325A3
:10238800008003260D00218A498E7310068023A041
:1023980001840F1000000346390513760602630E08
:1023A800062003463905218A6DDE6810B52173269B
:1023B8000080218A11CA7326008023A0C1840326C5
:1023C8000D005D9A731006800F10000023808400B2
:1023D800238064010F100000034639051165137648
:1023E800F60DA309C9040346390513660602A309B5
:1023F800C90403560905498E2318C904035609055B
:102408002165498E2318C9042380040073250080A0
:1024180003260D00218A498E7310068023A00184AB
:102428000F10000003463905137606026303061CE5
:1024380003463905218A6DFE97E0FF1FE78020C516
:10244800AA8C97E0FF1FE78080C4E30C95FF035632
:1024580009051165498E32552318C904F12E034622
:102468003905218A6DDE73260080218A138501844F
:1024780009CA7326008023A0C18410415D9A731095
:1024880006800F10000023808400238064010F1051
:102498000000034639051376F60DA309C904238005
:1024A8000400732800801041218A336606017310E6
:1024B800068023A001840F10000003580905034675
:1024C8002905E24733F809013386C90232983308EF
:1024D800F8401306800C3306C802D2473346F6028A
:1024E8006355001505060948334606036351C014B1
:1024F8000358C9029308F00F13585800329863D64E
:10250800081F094663734619F3270080A18B89CBFE
:10251800F327008023A0F1841C41DD9B7390078082
:102528000F10000037170040930770052300F704C9
:10253800930780FA2300F7040F1000008356C702A0
:1025480089678117D58FC207C1832316F702230035
:102558000704732700801C41A18BD98F73900780D3
:1025680023A001840F100000B65026549654065933
:10257800F649664AD64A464BB64B264C964C064D0B
:10258800F25D656182807D16B1B973260080218A6B
:1025980011CA7326008023A0C18403260D005D9A0A
:1025A800731006800F1000002380840023806401CC
:1025B8000F100000034639052DBB73260080218AC1
:1025C80011CA7326008023A0C18403260D005D9ADA
:1025D800731006800F10000023808400238064019C
:1025E8000F1000000346390513660602A309C90443
:1025F80069B373260080218A11CA7326008023A03C
:10260800C18403260D005D9A731006800F10000028
:1026180023808400238064010F10000003463905DD
:1026280013660602A309C904C5B37D166DBD55CE50
:102638000358C902B308C040135858006357180B11
:10264800094663744605F3270080A18B89CBF327DD
:10265800008023A0F1841C41DD9B739007800F103C
:102668000000B7170040130770052380E70413071D
:1026780080FA2380E7040F10000003D7C7027D8B80
:102688002396E70223800704E9B573260080218A90
:1026980009CA7326008023A0C18410415D9A731073
:1026A80006800F10000023808400238064010F102F
:1026B80000000356C9021376F60F33667601420608
:1026C80041822316C9022380040073280080104128
:1026D800218A336606017310068023A001840F1037
:1026E8000000050A137AFA0F39B2F3270080A18B8C
:1026F80089CBF327008023A0F1841C41DD9B7390D4
:1027080007800F100000B7170040130770052380DB
:10271800E704130780FA2380E7040F10000003D7AB
:10272800C70216063A96420641822396C70299BF07
:10273800914763EEB70217B701001307E79C8A05B4
:10274800BA959C41BA978287B717004003A7470BF1
:102758001345F5FF698F23AAE70A03A7070B698FBB
:1027680023A8E70A03A7070A798D23A0A70A82806E
:10277800B717004083A6470B1347F5FFF98E23AA26
:10278800D70A83A6070B558D23A8A70A83A6070A8D
:10279800758F23A0E70A8280B717004003A7470B6D
:1027A800498F23AAE70A03A7070B1345F5FF45BF7F
:1027B800B717004083A6470B1347F5FF758F23AA69
:1027C800E70A03A7070A598D4DB7B717004003A7B3
:1027D800470B498FEDB7B717004003D5870042056F
:1027E80041819377050491EB9377F5013755E8011B
:1027F800130505803345F50282809377050C13078E
:1028080000046397E7009377F50137459C1CCDB723
:102818002165130505D0828037E700E01C43544347
:10282800A183E206D58F1CC1FD572320F718232268
:10283800F7180F100000828013178500B7E700E033
:1028480023A0E710618123A2A7108280B7F700E0D8
:102858008847CC478280814737370040A14663C408
:10286800C700328582800345B740E38EA6FE3385D4
:10287800F5000345050085072304A740CDB797F762
:10288800FF1F9387A7329C43171700201307470D94
:102898003E95636EE50017570020130727566368B7
:1028A800A70017F7FF1F2323A7303E858280FD5717
:1028B800EDBF411122C406C62A84313F2947B30718
:1028C800E502B2408D83B3D7870222449507B3D778
:1028D800E70237370040C207C1832316F74041019A
:1028E8008280716541111305052006C6D937B737AF
:1028F8000040130770F82381E7400D47A381E740A4
:1029080013070004A380E74005472387E740B24048
:102918004101828011456FF00FD441119396250033
:10292800AA852D4506C697E0FF1FE78020D4B24050
:10293800014541018280411126C29394250022C499
:102948004AC02A843289A686AA850146254506C634
:1029580097E0FF1FE78080D1A6864A86A285294591
:1029680097E0FF1FE78080D0B2402244924402499A
:10297800014541018280011122CC06CE3714004066
:1029880026CA4AC84EC652C483447405034AB405CD
:102998008349840503499405EFF0AFA28347A40552
:1029A80093F4F40F137AFA0F93E71700230DF40446
:1029B80093F9F90F1379F90FB717004003C7A70563
:1029C800058B6DFF03D5C705A38D4705238C3705F8
:1029D800A38C2705A38B9704F2406244D244424952
:1029E800B249224A0561828041119397050122C4A8
:1029F80006C6C1872E8463DB0700652111C10D2936
:102A08002165218DB24022444101828093F715004F
:102A180013C51500E5FB9397250163D00702EFD096
:102A28007037CD3D37F60200130606E0896503C509
:102A38004184EF0030090965E9B79397150101450D
:102A4800E3D207FC17A501001305C571EF902154C7
:102A580013060064916503C54184EF00B006116553
:102A68004DB71D71494697A501009385256B17B58C
:102A780001001305E58786CE97E0FF1FE780A0FEDB
:102A880001E917A501001305A56AEF90415001A0BF
:102A9800B7F600E0795798CAFD57DCCA0567B7E76B
:102AA80000E023A0E7101306F00290C223A0E71865
:102AB8000F1000001306C0038145480897E0FF1F68
:102AC800E780E0F497F7FF1F9387072D3ECA8967D1
:102AD80093870780231CF100B5472304F102A167FF
:102AE800938707E03ECEB7070105938707103ED0CE
:102AF800ED472312F10285472303F10297070000EF
:102B08009387E7E1BEC497070000938707E3BEC633
:102B18008567938717D02315F102970700009387DD
:102B280027D33EDAB7F50700970700009387E7E455
:102B38003EDE814697070000938707DE7000E105B7
:102B48001945BEC097E0FF1FE78040B2580881478B
:102B5800994670003E960346060085070507A30CB4
:102B6800C700E398D7FED24791C70357810185670D
:102B78006373F70001A04808EF00B03CAA8501C9BB
:102B880017A501001305055CEF90C12E01A0F640C2
:102B980025618280411117050000130525E506C649
:102BA80022C4EF009036138441842300A40019281E
:102BB800034504002244B2401306003289654101EE
:102BC8006F004070411106C6F3270080A18B138760
:102BD800018489CBF327008023A0F1841C43DD9B6B
:102BE800739007800F100000B71700409306700518
:102BF8002380D704930680FA2380D7040F1000009F
:102C080083C6F70293F6A60FA387D702238007048B
:102C1800F32600801C43A18BD58F7390078023A0D7
:102C280001840F100000F3270080A18B89CBF327C4
:102C3800008023A0F1841C43DD9B739007800F1054
:102C48000000B7170040930670052380D704930649
:102C580080FA2380D7040F10000083C6F70293E69A
:102C68002600A387D70223800704F32600801C438D
:102C7800A18BD58F7390078023A001840F100000CB
:102C88000545EFE09FF679311305407E81470147FE
:102C9800814605468545EFE0DFFBB240014541012D
:102CA8006F00905A89476305F50263E6A7008547D8
:102CB800630AF50082808D476301F5029947630333
:102CC800F502828017A501001305054A6F90212C93
:102CD80017A501001305454AD5BF17A5010013051F
:102CE800A54AEDB717A501001305C54BC5B7411196
:102CF8009397050122C406C6C1872E8463DD0700A9
:102D080003C5C184792A11C125222165218DB240CC
:102D180022444101828093F715000145EDDB1385BC
:102D28004180EF00F17D13451400D5B70111170557
:102D38000000130505FC06CE22CCEF00101D1384FD
:102D4800C18485472300A4002307F1001306E1008E
:102D58008D47854513055030A307F100EF207143D7
:102D68001306F100854513058030EF20914217F6D0
:102D7800FF1F1306E6CDC14513057030EF207141E2
:102D880017F6FF1F1306C6CBB54513056030EF20B5
:102D980051409305000A0D45EF20A0639305000AF2
:102DA8001145EF2000639305000A0D45EF2060628E
:102DB8009305000A1145EF20C061034504008545CD
:102DC800CD2EF240624405618280411113058004D2
:102DD80006C697D0FF1FE780002D371700408327CE
:102DE800870A8D451305002093E707202324F70A57
:102DF8008132C53C17A501001305854FEF902119B5
:102E08008D31493BEF205164153797D0FF1FE7807C
:102E1800A07923AC05FE1C4191E7010001000CC11B
:102E28008280BA8703A787FF6DFF23ACB7FE828035
:102E38001DC18346E5FF1307F00F9147639EE60027
:102E4800411106C697F0FF1FE780809EB240814778
:102E58003E854101828095473E85828001E9014592
:102E680082800145B240224441018280956541112A
:102E7800938505D022C4C98D2A842105C20542053F
:102E8800C181418106C697F0FF1FE780008E71D986
:102E9800FD5723200500231285002303F500210593
:102EA800D1B7138701851C43411122C426C24AC0E9
:102EB80006C601440149BA8489E7A165212D0DC4DC
:102EC80001A803C7E7FF6318A7021DC8A165D52499
:102ED8009840832784FF6317E40223A8F184FD57F1
:102EE800232C04FE230FF4FE2285B2402244924490
:102EF80002494101828011E03E8983A787FF6DBFA7
:102F08003E84E5BF232CF9FED9BFA1CD411122C4CF
:102F180006C62A849707002083C7D76B2E8563755A
:102F2800F400894763E8870021370D45B240224401
:102F38004101828083A785FF99E703C7E5FF9307CF
:102F4800F00F6305F700ED351545CDB7238F85FEE6
:102F5800138501857D3D22852244B240A16541014A
:102F680089AC1545828023A8018482809387818655
:102F78009C4399E33E85828003D727006316B700F8
:102F880003C70700E308A7FEDC47E5B7BDCD7971A5
:102F980022D406D626D24AD04ECE01444147B3D7D2
:102FA8008540858BB1CF1205314722953305E5025F
:102FB8009387818503A907008544B3948400C204DC
:102FC800C180BE892A990327090011C70325490032
:102FD8002EC60297B24531473304E40283A709009D
:102FE8003E941C4489E72320090023220900B2509B
:102FF8002254A58D02599254F2492E85456182804A
:103008000504E31EE4F88144DDB72E858280411172
:103018001397050122C406C626C24AC041872E84DA
:10302800635E0700BD3D11C12135A1673D8C228536
:10303800B24022449244024941018280EDD9AA87D4
:1030480001474146B356E440858A9DCA9207BA971C
:10305800B146B387D7029386818503A906008544C4
:10306800B394E400C204C1803E9983270900032574
:10307800490082972320090023220900258C45BF97
:103088000507E311C7FC8144D5BF97070020938744
:10309800A7509C53411122C406C61384C18099C706
:1030A80082971C403E9523A6A18029A0938701867C
:1030B8009C43FDF70840B74703009387D73F330584
:1030C800F502B7A72600938737ECB24022443E9515
:1030D80023A6A1804101828079C9938701869C43F8
:1030E800797122D426D24AD04ECE52CC56CA5AC86A
:1030F80006D65EC63A8AB689328BAE8A2A89829704
:10310800938781859843BE840144B146C147B30B78
:10311800D40233067701104251E6C165938505F064
:10312800414597E0FF1FE78040641DE597070020B1
:10313800938787469C5B2D4589C7114581458297B2
:103148002D45B250225492540259F249624AD24A49
:10315800424BB24B456182809387818698431DEF2D
:1031680023A4A186230005009C4005473317870048
:1031780023260500232465012311E50023224501A8
:10318800DE9723A0270123A2570123A44701014565
:10319800E38909FA238089006DB73E875C47F5FF0C
:1031A80048C7C9B70504E314F4F6214559BF0945D2
:1031B80082809707002083C7F741637FF500138754
:1031C80041859317150008433E9583570500DD8D0B
:1031D8002310B500014582800D45828097070020A5
:1031E80083C7573F6371F50213874185931715000D
:1031F800084393C5F5FF3E9583570500FD8D2310C1
:10320800B500014582800D458280130705FF1377BD
:10321800F70FFD4763E5E70AB146B306D502938782
:103228008185984389473697184359CB011122CC99
:103238004EC60544935945003D893315A40013141F
:103248000501418026CA4E85AE84A2854AC806CEAD
:10325800313B2A89814721CDA2854E854137938705
:1032680001869C4382979707002083D7673B338763
:1032780097022A84814613060064B3B797021305A0
:103288000732B335E500BE95EF805105B3078500D9
:1032980097060020938646383E87D44263E4A70009
:1032A80063E4D7003387D7402324E9008147F240FD
:1032B8006244D2444249B2493E85056182808947C9
:1032C8003E8582809707002083C7D7306364F50066
:1032D8000145828001119387018656C283AA07009F
:1032E80006CE22CC26CA4AC84EC652C4638D0A0AE4
:1032F800170A0020130A4A3283244A00B74736FEC9
:10330800938707C8AE899705002083D56531BE9499
:10331800B387C5022A8432898146B3B5C5021385AD
:103328000732B337F50013060064BE95EF80017BC2
:1033380063EBA406829A9705002083D5652EB38790
:103348002503AA84130600648146B3B525031385B3
:103358000732B337F500BE95EF804178B307950083
:10336800BE8403274A0063E4A70063E4E700B3844C
:10337800E740CE852285DD3E01C504C505452DA063
:10338800936504F0C205C181414597E0FF1FE780BE
:10339800C03D05E597070020938707209C5B81C700
:1033A800A285114582970145F2406244D2444249C0
:1033B800B249224A924A05618280938781869C435A
:1033C8008DE323A4A18685472326050004C5231180
:1033D800350123008500A300F5002322050079BFED
:1033E800BA87D84775FFC8C7F9BF49C9797122D4C8
:1033F80026D24AD04ECE52CC56CA5EC662C466C2E7
:1034080006D65AC83689328AAE89AA844144314CD4
:10341800938A8185854C930B0003330B840303A7A0
:103428000A005A971C43B1E79375F400B395BC00A2
:1034380013554440C2055286C1811375F50F59359D
:103448000DC983A70A000145DA9784C323A237016F
:103458006304090023008900B2502254925402598F
:10346800F249624AD24A424BB24B224C924C4561D5
:1034780082800504E31374FB2145F9BF0945828066
:10348800411122C426C24AC006C62A842E89B284A3
:10349800153DCA852285D93C05CD9705002083D5E1
:1034A8002518B38795022A84130600648146B3B5AC
:1034B800950213850732B337F500BE95EF80016298
:1034C80048C00145B24022449244024941018280E9
:1034D8002145CDBF411122C426C24AC006C62A8949
:1034E8002E846934AA8419C123110500A2854A854E
:1034F800F5319707002083C7E70D6397270183D726
:10350800C1855D8C239E8184014591E01945B240B7
:10351800224492440249410182809307F00263E603
:10352800A7044111B14722C43304F50226C293848B
:1035380081859C4006C6A297984389470DC3937717
:10354800F5008545B395F500C205C181118159374C
:103558009C40A29723A0070023A207008147B240FE
:10356800224492443E854101828089473E8582807B
:10357800411106C622C4DD3A11E50145B240224494
:1035880041018280938701869C4300458297970773
:103598000020938767086368A402D843B74636FEBD
:1035A800938606C83305A4403697E378E5FC1307ED
:1035B8000064B335E50203D6870081463305E5028A
:1035C800EF80C15165BFD8433A94C1BF411106C6C7
:1035D80023A2A1860295B2409707002023A8A7003E
:1035E800014541018280994763E9B7008A05970739
:1035F80000209387A700BE9588C18280411171463B
:10360800814517050020130565FF06C623A401861A
:1036180023A2018623A0018697D0FF1FE780203FC1
:10362800130680028145170500201305A5FA97D0D7
:10363800FF1FE780C03DEF20616A9707002083C71E
:1036480017F713D527008D8B3E958D473305F50267
:10365800854539051375F50F97070020238DA7F6C3
:1036680099473305F5021305052497E0FF1FE78006
:10367800C00F23ACA18459C59947170600200346FB
:1036880086F53306F60281451306062497D0FF1FF8
:10369800E780E037938781859C439387072423A697
:1036A800F18617070020034707F30A07BA9723AAEA
:1036B800F184EFF05F8BF9299387C18694439707CC
:1036C800002083C737F113972700369717060000A5
:1036D8001306068C10C3138717001377F70F0A0712
:1036E8003697170600001306C69210C313873700D3
:1036F800890793F7F70F8A0797050020A38CE5EC55
:10370800B69790C3B240410182809707002083C7D3
:1037180077EC17070020034707EC63F1E7021387EC
:10372800C18618439386170017060020A304D6EA1B
:1037380093962700369708C33E8582809307F00F3B
:10374800E5BF1C416388071641777D8FB7060020C7
:1037580089476312D71603574500630E07144111B2
:1037680022C419462A849305F00F690506C697D026
:10377800FF1FE780E03305478D476308E5121C44C7
:1037880081CB5858994763020712185C630F0710DA
:103798001306C0038145170500201305E5DF97D000
:1037A800FF1FE780C0261306C003A2851705002067
:1037B800130585DE97D0FF1FE780E021170700205B
:1037C800035747DE97070020938707DD19E713079C
:1037D8000010970600202397E6DC17070020034710
:1037E80087DC11E7054797060020238EE6DA1707DE
:1037F8000020035767DB11E76D47970600202395E4
:10380800E6DA17070020034717DA11E71547970686
:103818000020A38AE6D817070020034707D911E735
:103828000547970600202382E6D81707002003479C
:10383800D7D719E703C7F70097060020A387E6D66E
:1038480017070020034787D611E73547970600205A
:10385800238EE6D417070020034797D519E71307E7
:10386800800297060020A385E6D4170700200347A7
:10387800F7D319E71307D00297060020A388E6D2EA
:103888000347840119E71307C00397060020238123
:10389800E6D29C5791C78297970700202390A7D418
:1038A800FD57A38FF198993B8147B24022443E854A
:1038B8004101828089473E85828001114EC6970961
:1038C8000020938969D583A7090006CE22CC26CA91
:1038D8004AC852C4829713090064B335250303DA32
:1038E80089008146528633052503EF80211F9707FB
:1038F8000020938727CE804FAA840145630694024F
:1039080033858440636E940003A54900528681463E
:10391800B335A9023305A902EF80411C018D269514
:103928009707002023A497CCF2406244D24442492E
:10393800B249224A056182809707002083D767CE63
:1039480051471D45637CF702794719456378F702AB
:103958001307200315456373F7021307B0041145D5
:10396800637EF700130740060D456379F7001307D8
:10397800600909456374F70013B5B70F8280011118
:1039880022CC06CE2A842EC6EFF02FF0B245F240A4
:10399800818D33A5A502229562441375F50F056143
:1039A8008280011122CC06CE2A842EC6EFF0EFEDDC
:1039B800B245F240818D33A5A502229562444205A5
:1039C800418105618280011122CC06CE2A842EC64F
:1039D800EFF0AFEBB245F240818D33B5A5022295E9
:1039E800624405618280970700209387E7BA985759
:1039F80039CB411122C426C206C6BE8402971707D6
:103A080000200357A7BD2A8415CBBA876373A70084
:103A1800AA87C207C183BA866373E400A286C20676
:103A2800C182958F5147635BF700DC5491C382973D
:103A3800EFC0503697070020239287BAB24022443D
:103A48009244410182808280970700209387C7B4FF
:103A5800DC57011106CEAA8581C72AC68297B245CE
:103A6800C9C19C410545BDCBDC41ADCB83D78500A1
:103A7800B5C783D7A500BDC383C7C500A5E3414625
:103A880017050020130545B997D0FF1FE780A0F45C
:103A980097070020938747B89C4323A0F186970790
:103AA800002083C7F7B08DE7930780021705002031
:103AB800035505B73305F50237460F0013060624EC
:103AC80081468145EF80810197070020A382A7AE38
:103AD800170500001305A5DED53C0145F240056138
:103AE80082809707002083C787AC13978701618777
:103AF800635407049707002023AC07AE97D7FF1F2E
:103B08009387272E170700202328F7B07D5797079C
:103B1800002023A5E7B0B7873200938727A197062F
:103B2800002023AFF6AE97070020238D07AEB7C756
:103B3800004023A4E726A9BF13F7170005CFB787CE
:103B48002003938707D017070020232BF7ACB7076C
:103B5800C0A8170700202323F7AC97D7FF1F938728
:103B6800672B170700202329F7AA97070020238B24
:103B780007AA39BF6177970600202393E6AA81CB6D
:103B88009307003217070020231DF7A8C9B793072A
:103B98002003CDBF011122CC170400201304C49FB9
:103BA800084406CE26CA4AC801E90545F2406244DF
:103BB800D2444249056182805C58E5DB185C75D7C0
:103BC8007000854582971844B247E300F7FE9305D5
:103BD800E004170500200355E59C97E0FF1FE780E8
:103BE800C0B8170700202327A7A061D11706002017
:103BF8000356469B9305F00F97D0FF1FE78020E1FF
:103C08008144170900201309E99C9707002083C7FE
:103C180087990326090263C1F402328597E0FF1FE2
:103C2800E78000C101459707002023A5079C970757
:103C3800002023A3079C9DBF9705002083D5859668
:103C4800B38795020844185C898185043E9508C2AB
:103C5800029765BF011156C2970A0020938ACA933A
:103C680083A78A0022CC4AC84EC606CE26CA52C4AA
:103C78005AC0AA892E8432896385072203A74A037A
:103C8800630707147D476366A7149704002093848D
:103C9800649403AA040263170A0A9565938515E0DC
:103CA800170500200355059097E0FF1FE780E0AB5C
:103CB8009707002023A0A7942A86630A051083A7E4
:103CC8004A0303A58A009705002083D5A58D89811D
:103CD800829783A78A0003AA040217070020232DCE
:103CE800F7908947639CF908C1476312F40E97055A
:103CF800002083D5258B938505FC9147B3C5F50234
:103D08008A05D29503C705009307A005631DF70A26
:103D180083C715006399370B4A852286910597D08A
:103D2800FF1FE78040CB9C505285639347150145A0
:103D3800F2406244D2444249B249224A924A024B72
:103D480005618280D850E38EE7F89565938525E074
:103D5800170500200355058597E0FF1FE780E0A0C1
:103D68002A8A35C52A8683A74A0303A58A009705A8
:103D7800002083D5258389818297A5B78D47639DC8
:103D8800F900C1476315F4049705002083D58581A0
:103D9800938545FDF199B5B79147639AF900631882
:103DA800340397F5FF1F83D5E57FA115E5B7C14714
:103DB800639FF900A14763EC870097F5FF1F83D540
:103DC800657EC115C1BF9C5052856397470D294533
:103DD80085B71307F006568B6361A70A130A05FE19
:103DE8001947334AEA0217F7FF1F0357A77B97FAC9
:103DF800FF1F938A2A7E330AEA023E9A83A74A0261
:103E08006395470183A40A029DE49305E00417F52E
:103E1800FF1F0355257997E0FF1FE7800095AA84C7
:103E28005DD583274B0397F5FF1F83D5A5772A8692
:103E380089815285829791451307A00589819397B7
:103E48002500A69783C607006393E60483C6170078
:103E5800639C360385058A052286A6954A8597D0F0
:103E6800FF1FE78040B783A70A02E38297EC268505
:103E780097E0FF1FE780C09B5DBD1307E007E3687D
:103E8800A7F4130A05F985B783D5270045BF83A78B
:103E98000A02E38E97F2268597E0FF1FE780409994
:103EA8003DB797F7FF1F9387E7728C538DD19147E2
:103EB8009306A0058983139727002E9703460700CA
:103EC800E317D6F003461700631C360185078A07F7
:103ED8002286BE954A8597D0FF1FE780C0AF81BD77
:103EE80083572700C1BF97F7FF1F9387E76A984753
:103EF80039C79C5FA9C705476313E504411122C46C
:103F080017F4FF1F1304046D105006C60DC6485061
:103F180097F5FF1F83D5056989818297085097E037
:103F2800FF1FE780E09097F7FF1F23A5076C97F71F
:103F3800FF1F23A3076CB240224441018280828084
:103F4800011117F7FF1F130727654EC6832987003E
:103F580022CC26CA4AC806CE52C456C2AA842E8487
:103F68003289638A09201C5FBA8A99EB2945F24095
:103F78006244D2444249B249224A924A0561828047
:103F88005C5BEDD7FD4763E9A70E97F9FF1F93899F
:103F9800696483A70902B1CB03A58A0083A74902F4
:103FA8006395A70689476393F408C147E310F4FCB7
:103FB80017F5FF1F0355055F9147130505FC3345AA
:103FC800F5029317250003A509022286CA853E95A6
:103FD8009307A0052300F500A3009500110597D0CD
:103FE800FF1FE780409F014559B79305E00417F587
:103FF800FF1F0355255B97D0FF1FE780007797F7D2
:10400800FF1F23A9A75E49F995B783A74A0303A60B
:10401800090297F5FF1F83D5E5588981829783A701
:104028008A0017F7FF1F2329F75CADBF8D47639EF2
:10403800F400C147E31CF4F217F5FF1F035585563A
:10404800130545FD9377C5FFBDBF9147639AF400FB
:10405800E31E94F017F5FF1F0355C5542115DDB76E
:10406800C147E395F4F0A147E3E287F017F5FF1F96
:10407800035545534115F9B79307F00663EAA706B8
:10408800930705FE1947B3C7E70217F7FF1F035742
:10409800675117FAFF1F130AEA53B387E702BE995D
:1040A80083270A02A9CF83274A02639A3707032581
:1040B8000A0291461308A005FD5593D72600C207AA
:1040C800C183139727002A9703460700631D060735
:1040D800834817000356270063959806B306D64011
:1040E80063CF860485078A072286CA853E95C5BDA3
:1040F8009307E007E3ECA7E6930705F979B793057B
:10410800E00417F5FF1F0355E54997D0FF1FE78027
:10411800C06597F7FF1F23AFA74C51F581BD83A753
:104128004A0303260A0297F5FF1F83D5A54789810D
:104138004E85829797F7FF1F23A0374D8DBFA300A9
:10414800B700B2869DBFB385860017F6FF1F0356DA
:1041580066459105130606FCE3FAC5E0130634002C
:104168001376C60F1106B29623000701A300970025
:104178002311D70085BF97F7FF1F9387A74594534F
:10418800BE89A1C203A5090291461308A005FD55E1
:1041980093D72600C207C183139727002A9703469F
:1041A800070063160605834817000356270063981F
:1041B8009800B306D640E3D786F2A300B700B286CC
:1041C800C1BF8357C70017F5FF1F0345C53D9305BA
:1041D800E0043305F5024205418197D0FF1FE780CF
:1041E800C05897F7FF1F23A7A74049FD41B317F60B
:1041F800FF1F0356263B97F5FF1F83C5C53AB385B6
:10420800C502338686001106E3E2C5D681BF0145A3
:104218008280011106CE2EC6EF70E05A01C9B24560
:10422800F2400355250005616FB0C067F24049456B
:1042380005618280A38C0188238C018823A00188D2
:1042480023A2018823A4018823A6018823AE01861E
:1042580023AC018697F7FF1F9387073D3706840332
:104268003707B40090D337C6070098C3130606B8BB
:104278003747A000D8C3D0D337071000416693064C
:10428800070AB70550009308060194C723A417032B
:1042980093860501930816F8D4C723A61703B70613
:1042A800D007B7087F0013080705138506014107E3
:1042B80023A81703B0C39308160093860605138630
:1042C8001500D8CBF8C323A8070188CF23AE070071
:1042D80023AA170323AC070223AE070223A407046B
:1042E800F0C7B4CB23AA0704ACCF23AE0705B8D3D5
:1042F8003707A000F8D71307000AB8DB1307C01C5C
:10430800F8DB37071400B8DF0547F8DF130710F8A4
:10431800E8D323A4070623A0070823A2E70882807E
:10432800011126CAAA84214522CC06CE2E8432C683
:1043380036C43AC2EFE09FB21DC9A24612473246C0
:10434800930700FD2300F5009947A300950023017A
:10435800F5002303D500A303E5002312C500AA85B1
:1043680022856244F240D24405616FE01FBAF240F0
:104378006244D2440561828023A0A188828023A25E
:10438800A188828023A4A188828023A6A188828014
:10439800011122CC4AC806CE26CA2A890144B30490
:1043A80089006368B400F2406244D244424905611E
:1043B80082802EC6EFE07FCD93170501C183A183CC
:1043C800B2452380F4009307140093F7F70F850490
:1043D80063F9B700CA9709042380A7001374F40F80
:1043E8007DBF3E847DBFC16717F5FF1F0355A52C10
:1043F800FD176304F502411117F6FF1F0346C6387F
:104408009385018906C6EF70001BB240FD5717F768
:10441800FF1F2312F72A41018280828009C92515CE
:104428001375F50F1335850E134515008280014568
:10443800828023900500C9C6797122D426D24ECE37
:1044480052CC5AC806D64AD056CA5EC63684328A74
:10445800AE892A8B814463F34407B307940083C76A
:104468000700138914004209939A070193DA0A0195
:104478001359090163840A04CA976341FA04B3070C
:10448800240183CB07005E85513F0DC99387FAFF4E
:104498002390F90063906B03130519002295B2501D
:1044A800225492540259F249624AD24A424BB24BC0
:1044B80045618280D694C204C18071BF0145C5B7E9
:1044C80001458280411126C2AE8422C497F7FF1F9E
:1044D80023AAC71E97F7FF1F23A4B71E97F7FF1F2E
:1044E80023AEA71C2A8441469305F00F26854AC0AF
:1044F80006C6054997C0FF1FE780805B6310250546
:1045080097F7FF1F9387C71A884BC1455135414616
:104518009305F00F228597C0FF1FE78060598544F7
:1045280063189502224497F7FF1F93876718B240D4
:1045380092440249C847C145410199BD4146814558
:10454800268597C0FF1FE780A056E31225FD4DBFC3
:1045580041468145228597C0FF1FE7806055E303E8
:1045680095FCB240224492440249410182804111A3
:1045780022C426C22E84AA8413060002814517F598
:10458800FF1F1305E51206C697C0FF1FE7802048E6
:1045980097F7FF1FA38F971097F7FF1F2388871E92
:1045A800EFB04032854719C181474945B24022449E
:1045B80017F7FF1F230EF70E9244410182808147AF
:1045C80081CD19C98547631BF50083C7550093E75B
:1045D80007FCA382F50085473E85828089476317DB
:1045E800F50083C7550093F7F703E5B70D478547EF
:1045F800E314E5FE03C755001377F70313670704B1
:10460800A382E500D1BF81478DC105C103C755000D
:104618009306000C85471377070C6308D7009306A9
:1046280000048D476303D70089473E858280411186
:1046380022C4005D06C626C21DC8AA84085009C542
:1046480097D0FF1FE780C01E485009C597D0FF1FAD
:10465800E780001E085409C597D0FF1FE780401D5A
:10466800228597D0FF1FE780A01C23AC0402B2402C
:10467800224492444101828009ED97F7FF1F83C7C6
:10468800470317F5FF1F1305250481CB1385018701
:10469800828017F5FF1F13052503828017F5FF1F7A
:1046A80003452501828097F7FF1F93876700C84756
:1046B800828097F7FF1F9387A7FF884B828097F721
:1046C800FF1F9387E7FEDC4B8843828097F7FF1F25
:1046D800938707FED84B1C4385071CC317F5FF1F9C
:1046E800034535FD9307F00F6305F50091656FE00D
:1046F8005FAC8280011122CC06CE2E8432C6EF70C8
:10470800C01C9147B245631FF5009387C1889C433D
:104718008DC303A30700630E030022856244F240A1
:1047280005610283938741889C4381C703A347009F
:10473800DDB7F2406244054505618280011122CC53
:104748002A840355450006CE26CA4AC84EC6EF60DD
:10475800F0762DC52A89834405008349C500C13DEB
:104768004A85EF70605003554400EF70401183C7CD
:104778008189A9CB6398970483C591892685513C83
:1047880019E1238C018803554400EF700014914708
:10479800631FF5000357440097F7FF1F83D7A7F15E
:1047A8006317F700FD5717F7FF1F2316F7F0F240BE
:1047B8006244D2444249B2490561828081499304E6
:1047C800F00F75B79307F00FE38FF4FA8346640090
:1047D80003564400034524004E87A685913665B7E5
:1047E80079715EC6AA8B2E8552CC56CA5AC806D68F
:1047F80022D426D24AD04ECEAE8A328B368AEF6089
:10480800F06B7DC1045D2A89E5C09C50614599C360
:10481800130540039C5481C7510542054181630536
:104828000A00710542054181DC5081C75D054205DA
:104838004181EFE0AFE22A8445C96146814597C0CE
:10484800FF1FE780C01C97F9FF1F83C9E9E0639445
:10485800090083490900930700FD2300F400A947D4
:10486800A30074012301F400230364018C50231274
:1048780054011305840191C908C47146930A44037D
:1048880097C0FF1FE780201556858C5491C948C4EE
:104898005146930A450197C0FF1FE780C01356850C
:1048A800630C0A0008C87146D285930AC50197C0EF
:1048B800FF1FE78040125685CC5099C548C85D4611
:1048C80097C0FF1FE7802011A2854E85EFE0EFE338
:1048D8002254B2509254F249624AD24A424BB24BE5
:1048E8004A8502594561A1B3B250225492540259E3
:1048F800F249624AD24A424BB24B45618280011169
:104908004EC6AA892E854AC806CE22CC26CA2E892A
:10491800EF60D05A21C997F4FF1F83C4E4D399E00C
:10492800834405001945EFE06FD32A8405CD8145FE
:10493800194697C0FF1FE780800D930700FD2300ED
:10494800F400B947A30034012301F4002312240121
:10495800A2856244F2404249B2492685D2440561A3
:104968006FE0AFDAF2406244D2444249B24905618D
:10497800828039715ECEAA8B2E8526DA4ED652D425
:1049880056D25AD006DE22DC4AD8AE84328BB68A9A
:104998003A8ABE8942C6EF60705221CD2A894145C4
:1049A800EFE0CFCB2A8431C54146814597C0FF1F30
:1049B800E780E00517F5FF1F034505CA19E1034520
:1049C8000900930700FD2300F400BD472301F4000C
:1049D800B247A30074012312940023046401A304C2
:1049E800540123054401A30534015CC4A285EFE00A
:1049F800CFD1F2506254D2544259B259225A925AE3
:104A0800025BF24B21618280797126D2AA843945F2
:104A18004AD04ECE06D622D42EC6B2893689EFE0C9
:104A2800EFC321C1B2459307000D2310F500B1472C
:104A38002A842312B5002301F500CE8519051946ED
:104A480097C0FF1FE78020F923062401A28522547E
:104A5800B2500259F24913F5F40F925445616FE0D0
:104A6800CFCAB250225492540259F2494561828009
:104A780017F7FF1F0347F7C39307F00F630DF706F8
:104A8800411126C2AA84394522C406C64AC0EFE0AD
:104A9800EFBC2A8439C9930700FD2300F500A30061
:104AA80095002301050097F5FF1F9385E5C10D05C6
:104AB800194697C0FF1FE78000F217F9FF1F130977
:104AC80029BF83578900A28517F5FF1F034575BEC7
:104AD8002315F400834719002306F4002244B2404A
:104AE8009244024941016FE04FC2B24022449244CD
:104AF800024941018280828001115AC02A8B3145C6
:104B080026CA4EC652C456C206CE22CC4AC8AE8465
:104B1800B28A368ABA89EFE06FB435CD2A84268501
:104B2800EF60D03911C50347C500A1476314F704E6
:104B380017F9FF1F0349F9B7930700FD2300F40095
:104B48009D47A30064012301F4002312940023135A
:104B580054012314440123153401A2856244F24010
:104B6800D244B249224A924A024B4A8542490561D7
:104B78006FE0AFB917F9FF1F034959C1E31E0BFADC
:104B8800938741989C439C47C5DBCE865286D68541
:104B98002685829755B7F2406244D2444249B249C9
:104BA800224A924A024B05618280011122CC2A8452
:104BB800214506CE2EC6EFE06FAA21C1B245930764
:104BC80000FD2300F500C5472301F50083C7350024
:104BD800A301F50083D745002312F50083C76500BC
:104BE8002303F50083C77500AA85A303F500228572
:104BF8006244F24005616FE04FB1F24062440561E2
:104C08008280397162CC2A8C594526DA4AD84ED628
:104C180052D456D25AD05ECE06DE22DCAE8432C6DC
:104C280036C4BA8B3E8BC28A468A8359010403492B
:104C38004104EFE0AFA225C93246930700FDA24622
:104C48002300F5009547A301C500A30085012301B2
:104C5800F5002A8419461105A9C2B68597C0FF1F19
:104C6800E78060D723066401230A24012315740111
:104C7800231754012318440123193401A2856254CF
:104C8800F2504259B259225A925A025BF24B624C84
:104C98002685D25421616FE04FA7814597C0FF1F39
:104CA800E780E0D6C1B7F2506254D2544259B259A3
:104CB800225A925A025BF24B624C2161828097F72A
:104CC800FF1F83C7079F8DCB4111AA8519461385FE
:104CD800018706C697C0FF1FE780E0CF938501874D
:104CE80017F5FF1F0345E59CEFF07F8DB240138554
:104CF800018741016FA0903D0145828017F7FF1F92
:104D08000347379B9307F00F6305F708411126C245
:104D1800AA84294522C406C6EFE04F942A8429C1F3
:104D2800930700FD2300F500A1472301F500A30028
:104D3800950097F7FF1F9387A79783C72700938549
:104D480001871105A30FF5FE194697C0FF1FE780DD
:104D580080C8A28517F5FF1F0345B595EFE0EF9AC8
:104D680017F7FF1F0347E7948D47631FF7009387E3
:104D780081889C4391CB03A38700630703002244E7
:104D8800B240924441010283B2402244924441011C
:104D9800828017F7FF1F0347C7918D47631AF700F3
:104DA800938781889C4389C703A38700E31D03FC7D
:104DB8008280797122D406D626D24AD04ECE52CCE1
:104DC800094455CD2A89035505002E8A5144EF60C0
:104DD800F00EAA844DC597F7FF1F83C7279BFD17C1
:104DE80093F7F70F05474944637BF7080347C50066
:104DF800A1476314F70063140A089C5C4544C1E3A7
:104E08009165938545711305C00297D0FF1FE78010
:104E1800C09588DCAA894D443DC11306C00281456E
:104E280097C0FF1FE780A0BE8357090093864900FB
:104E380036852391F90071469305490036C697C017
:104E4800FF1FE78040B989472380F90003C5C400E4
:104E5800B24603560900611597F5FF1F83C5C59231
:104E680013351500EF70B0232A8463060A00D28533
:104E78002685EF70400E01C42685EFF04FFB228592
:104E8800B250225492540259F249624A45618280D2
:104E980097F7FF1F83C7878FFD1793F7F70F05470E
:104EA800637AF708894741CA011122CC26CA4AC841
:104EB8004EC652C406CEAA89368AB2842E89EF60BD
:104EC800E07F2A84D14739C9485509C597D0FF1FC3
:104ED800E7800096F145268597C0FF1FE78080B5DB
:104EE80048D4CD4705CD8346C40021478147639FF9
:104EF800E600630D0A000347A50103560501930662
:104F08002501AA854E85EF70800CAA8703474400C7
:104F1800630F0900136767002302E400F24062444C
:104F2800D2444249B249224A3E85056182801367CC
:104F38004700DDB7C9473E8582809307200463EBAD
:104F4800A70097E7FF1F9387276E06053E95035531
:104F58000500828041657D158280011122CC2A845A
:104F68002E8526CA06CEAE84EF6040751DCDB747A4
:104F78000F009387F723094563E4870281450A8573
:104F8800414697C0FF1FE78080A8A68523108100AF
:104F98000A85418023018100A3010100EF70C07BD5
:104FA800F2406244D244056182804945D5BF97E703
:104FB800FF1F238CA77C82806F709008797152CC78
:104FC8002A8A328522D426D24AD04ECE56CA5AC808
:104FD8005EC606D662C4AE8BB28A368BBA843E8968
:104FE800C2894684EF60806D15C92A8C63140A0251
:104FF80013774B008347450015CF93E7270123021A
:10500800FC008DEC631C0902639A090205E8ED9B1C
:105018002302FC00832B8C0363910B08B2502254AB
:1050280092540259F249624AD24A424BB24B224C3C
:1050380045618280F59B93E70701D1B793E7470065
:105048002302FC0001CC1C484146A2852324FC0213
:1050580013058C0197C0FF1FE780E09763930B024D
:10506800D5D80325CC0209C597C0FF1FE780407C2F
:10507800F145268597C0FF1FE780C09B2326AC0219
:1050880051BFE30909F80325CC0209C597C0FF1FE2
:10509800E780007AF1454A85F1BF9DC483A70B02DA
:1050A80099EB916593853571714597C0FF1FE7802E
:1050B800C06B23A0AB0203A50B0219C57146A685D8
:1050C80097C0FF1FE78020916388090283A74B02DE
:1050D80099EB9165938525715D4597C0FF1FE78022
:1050E800C06823A2AB0203A54B0219C55D46CE8555
:1050F80097C0FF1FE780208E1DC483A78B0299EB02
:10510800916593851571514597C0FF1FE780E0654C
:1051180023A4AB0203A58B0219C55146A28597C0EB
:10512800FF1FE780408B2254B2509254F249B24B91
:10513800224CCA865A860259424BD6855285D24A93
:10514800624A45616FF0CFE9011126CA52C406CE02
:1051580022CC4AC84EC62A8AAE84EF60205625C59E
:10516800AA893945EFD09FCF2A8431CD17E9FF1F8F
:105178000349894E6314090003C909009307000D08
:105188002310F400AD472301F4009385690013054B
:105198003400194697C0FF1FE780E08393F7140097
:1051A800858085882306F400A3069400231544010E
:1051B800A2856244F240D244B249224A4A85424911
:1051C80005616FD09FD4F2406244D2444249B2494B
:1051D800224A0561828001114EC652C456C206CECB
:1051E80022CC26CA4AC8AA8A2E8AB289EF60004D04
:1051F8002DCD2A891305C002EFD05FC62A8435C594
:1052080097E4FF1F83C4444599E08344090093074A
:10521800000D2310F400E9472301F4009305690009
:1052280013053400194697B0FF1FE780C07AD2856E
:10523800231554011305C400414697B0FF1FE780AA
:105248008079CE851305C401414697B0FF1FE780DA
:105258008078A2856244F2404249B249224A924A81
:105268002685D24405616FD05FCAF2406244D244B9
:105278004249B249224A924A0561828093878187CE
:10528800884301CD411106C697C0FF1FE780405AE9
:10529800B24023AC0186410182808280011106CE92
:1052A80022CC26CA4AC82EC6EF60404139CDB24545
:1052B80017E9FF1F0349493AAA840CD5631409006A
:1052C800034905004145EFD07FB92A841DCD9307D6
:1052D800000D2310F500A5472301F50083C75400EE
:1052E800938564001105A30FF5FE194697B0FF1FBB
:1052F800E780606E9C54A285F2405CC46244D2444C
:105308004A85424905616FD05FC0F2406244D24489
:10531800424905618280797122D406D62A842EC634
:10532800EF60C03901CDB2452285230EB1006C086B
:10533800EF60F03EB2502254456182805145DDBF96
:105348006F60A04DC1671387E7FF6394E5029387F9
:1053580041889C4391EB494582804945B2402244AB
:10536800924402494101828003A30700E30503FE3A
:105378000283411122C426C24AC006C6FD172A89E3
:105388002E84B2846395F502938741889C4391CB20
:105398009C4381CB829711E5238C2189A38C91882A
:1053A80075BFA6854A85EFE0DFE64DF9F5B72E858E
:1053B800EF60C0305DD1834705000D45E39027FBC2
:1053C80022852244B2400249A685924441016FA039
:1053D800604D9307200463E2A7064111C16722C408
:1053E80006C626C2FD172A8409456382F502C54709
:1053F800AE846313F4022E85EFA0C05117E5FF1F9A
:105408001305852206042A94231094000145B2400E
:1054180022449244410182809307A0036316F4005A
:105428002E85EFA0A048D9BF9307B003E318F4FC7A
:1054380013F5F50FEFA0C047D1B7094582800111D8
:1054480006CE2AC6EFE01FDFEF200010EF10406005
:10545800EF00C13E324597E7FF1F93876725130783
:1054680000F02391E700238207007D5797E7FF1F8D
:10547800938787312381E7002380A700F240954571
:1054880005616F40903B597193970501CAD086D644
:10549800A2D4A6D2CECED2CCD6CADAC8DEC6E2C450
:1054A800E6C2EAC06EDEC1872E8963D1075A17E5C6
:1054B800FF1F0345652DEFD0DF9E8964416A856A29
:1054C800797B2A84938BD4007D1AA50A130CABFF31
:1054D8001DE021653345A900B65026549654065957
:1054E800F649664AD64A464BB64B264C964C064D6C
:1054F800F25D65618280834704001307200A639D7B
:10550800E7000355240097E9FF1F83C9991A2286EB
:10551800D285EFF02F9E59A21307100997E9FF1FB4
:1055280083C9A9266398E718834714001547639031
:10553800E7022285EFF08FA02285EFD07F8F17E555
:10554800FF1F03456524EFD0DF952A8451B73947FB
:10555800639BE71803554400631B55050C4483CC33
:105568000500639D0C00850591C9194617E5FF1FC5
:105578001305851597B0FF1FE780E04517E7FF1F64
:105588000347071385476317F712638A0C0097E7E9
:10559800FF1F238F07106685EFF08FCD71BF8947F6
:1055A80017E7FF1F2306F710EFA0003271B79387A4
:1055B8002400631AF506832C8400638D0C0E83C7C0
:1055C8000C008DE383C72C0003C71C00A207D98FEA
:1055D80017E7FF1F2312F70E83C73C0017E7FF1FCB
:1055E800A308F70C17E7FF1F0347870C89476313C6
:1055F800F70C83C70C0081CB97E7FF1F238A070AA4
:1056080003C50C0051BF8D4797E5FF1F83C5550A99
:1056180017E5FF1F0355450A17E7FF1F230AF70879
:10562800EF40B024F1BF938754006318F5001C4481
:1056380003C50700EFF08FEC01B7B3078501C20778
:10564800C18311476372F7049307ABFCAA971397BA
:1056580007014183F14763F1E7029387B4006312BE
:10566800F504938701889C43E38807EC9C43A28553
:10567800E38407EC82971DA0B70700189387F7709B
:10568800B3D7E700858BB9CB938781889C43E385A3
:1056980007EA9C43E38207EA22858297E31E05E82E
:1056A80011A89387C4006310F5021C4483C7070040
:1056B800E38407E89307F00FE380F9E8A2854E85B5
:1056C800EFD0BF84ADBD9387E4006319F5009387DD
:1056D80041889C43E38207E6DC4351BF9387140467
:1056E800E301F5F8C1BF3D476397E704035544005C
:1056F800E30F75FD93879401E30BF5FC9387340161
:10570800E31AF5FA97E7FF1F83D7E7FA639E470185
:10571800938741889C43E38107E2DC43E38E07E0FB
:10572800A28513853401B9B79387C1889C43E38563
:1057380007E09C43E5B71307E003E39DE7F68347DB
:10574800240005476397E70E83476400938D81879C
:10575800F1E383A70D00D5CB83CC0700A14903450E
:105768007400130D8400EA85EFE0FFE983474401E4
:10577800A303A400835804010358E400035744001A
:105788002A86034534003EC283572401EA86E6850B
:105798003EC0CE87EFF0EFC68347340095E7DD477C
:1057A800835804010358E400834674008355440079
:1057B8003EC2835724016A8705463EC06685CE8768
:1057C800EF60C022A301A40083A70D0081C7114583
:1057D800EFF0DFAA03C58189E30005D683C5918967
:1057E800EFE03FA3E30A05D4834634009307100390
:1057F800638AF600035644004E8783C5818936853F
:10580800EFE01FB2238C018805BB97ECFF1F83CC08
:105818005CEAA9B7938781889C4397ECFF1F83CCE8
:105828005CE991498DDFDC439DDB81450145829729
:105838003DB729476391E70C83476400138D81873F
:10584800C1E783270D00A5CF83CC0700A1490345F5
:1058580074009306840093772500D1C7137615004A
:10586800930D4401834704028358C4010358A401DB
:1058780003574400034534003EC28357E401E685DC
:105888003EC0CE87EFF0EFB78347340095E7DD479A
:105898008358C4010358A401834674008355440007
:1058A8003EC28357E4016E8705463EC06685CE87B3
:1058B800EF60C013A301A40083270D0001BF97EC7C
:1058C800FF1F83CC1CDF59B7938781889C4397ECD3
:1058D800FF1F83CC1CDE9149BDDBDC43ADDB81457A
:1058E80001458297ADB7B68536CEEFE0DFD1F246F7
:1058F8002A86B68D85BF0947639DE700938701888F
:105908009C43E38B07C2DC43E38807C22285829766
:1059180025B12D476399E700938701889C43E38D60
:1059280007C09C47D5B70D476397E70022868D458A
:1059380003554400F9BE19476395E70693056102CC
:1059480013051031EFF030752C1013052031EFF0EE
:10595800907403566400835781020355440063E83A
:10596800C700835684000357610263F7E600930576
:105978000002EF903079C9B66374E6002313E4009F
:1059880063F4D7002314F4000357C4008356A4001B
:10599800035684008355640001488147EF90507690
:1059A80061BE1D47E388E7D031476395E70022864B
:1059B800B145BDBF35476399E700938701889C438C
:1059C800E38C07B6DC4789B739476396E700228539
:1059D800EF00D00395B63D476399E70093870188A8
:1059E8009C43E38B07B49C4B05B741476396E7009C
:1059F8002285EF00900C89B645476396E70001457C
:105A0800EF00701B15BE4947639EE70093878188A6
:105A18009C43E38107CADC43E38E07C881450545FB
:105A2800829749B94D47639DE700938781889C43D6
:105A3800E38207C8DC43E38F07C6A2850945CDB7D3
:105A48006147E399E7C62286E145DDB593F715007E
:105A580081CF938701889C4389C7DC4399C301455B
:105A68008297134519008DBC93F7250089CF93873A
:105A780081889C4391C7DC4381C78145054582974E
:105A88001345290091BC93F745000145E38607A417
:105A98009387C1879C4399CF854717E7FF1F230B3F
:105AA800F7C0938781889C4391C7DC4381C78145B0
:105AB8000545829797E7FF1F938787BFC8472C1034
:105AC800EF60F0352810EFF08F9F97E7FF1F83D71F
